:020000040800F2
:10000000C8420020C17D06080D7C06080F7C06084A
:10001000117C0608137C0608157C06080000000009
:10002000000000000000000000000000177C06082F
:10003000197C0608000000001B7C06081D7C0608D1
:10004000197E06081D7E0608217E0608257E060804
:10005000297E06082D7E0608317E0608357E0608B4
:10006000397E06083D7E0608417E0608457E060864
:10007000497E06084D7E0608517E0608557E060814
:10008000597E06085D7E0608617E0608657E0608C4
:10009000697E06086D7E0608717E0608757E060874
:1000A000797E06087D7E0608817E0608857E060824
:1000B000897E06088D7E0608917E0608957E0608D4
:1000C000997E06089D7E0608A17E0608A57E060884
:1000D000A97E0608AD7E0608B17E0608B57E060834
:1000E000B97E0608BD7E0608C17E0608C57E0608E4
:1000F000C97E0608CD7E0608D17E0608D57E060894
:10010000D97E0608DD7E0608E17E06081F7C06080B
:10011000E57E0608E97E0608297C0608ED7E0608CD
:10012000F17E0608F57E0608F97E0608FD7E0608C3
:10013000017F06080000000000000000057F06089F
:10014000097F06080D7F0608117F0608157F06083F
:10015000197F06081D7F0608217F0608257F0608EF
:10016000297F06082D7F0608317F0608357F06089F
:10017000397F06083D7F0608417F06080000000021
:1001800000000000457F060800000000000000009D
:10019000497F060800000000000000004D7F0608AF
:1001A000000000000000000000000000517F060871
:1001B000557F0608597F06085D7F0608617F06089F
:1001C000657F060800200087F2008802200880630F
:1001D000C10808206087023008002000800200006B
:1001E00033F8C023008C063C30C1831C0CC03000A7
:1001F00003FF000C003000C003000033F8C02300F0
:100200008C063C30C1831C0CC0300007DF010C049D
:100210003010C043000033F8C023008C063C30C1CE
:10022000831C0CC0300107C4011004E012C07180AF
:100230000033F8CFE3008C063010F0830C0CE03272
:1002400000C3030C003000C003FF000033F8C023DC
:10025000008C063C30C183380C80018FC60C1830EE
:1002600060C1B687B1800033F8C023008C043C30F5
:10027000C383380C00419FE600187861119C479EAB
:10028000000033F8C023008C063C30C1831C0CC036
:10029000300003FF080020008003FF000031F8C099
:1002A00023008C043C30C383380C0000FFC0030FD4
:1002B000FC20008003FF000031F8C023008C063CC6
:1002C00030C383380C0001F7C0431F0C603180C776
:1002D000E3000031F8C023008C063C30C383380CA7
:1002E0000001F7C0531F4C413104C7DF000031F853
:1002F000C023008C043C30C383380C0001F4C0538D
:100300001F7C413104C7DF000031F8C023008C049A
:100310003C30C383380C0001F100441F1840E10653
:10032000C7F1800031F8C023008C043C30C383380F
:100330000C0001F7C0501F7C41010407DF000031B1
:10034000F8C023008C043C30C383380C0001F7C094
:10035000DA1F6841A10687FF000031F8C023008F33
:10036000043C30C383380C0041F100FF9F38413119
:100370000447DE000033F8C023008C063C30C18304
:100380001C0CC030FFC3FF080C203080C3FF0000EE
:1003900031F8C023008C063C30C383380C800080C9
:1003A000C2030FFC203080C3FF000031F8C02300DF
:1003B0008C063C30C383380C80019986661F986692
:1003C000619A47F9800011FC47E10084061C107017
:1003D000C10C04E0100C403000C00780738703801C
:1003E0000031F8C023008C063C30C1831C0CC030A7
:1003F000610184061818E096CC31800033F8C023E0
:10040000008C063C10C1830C0CC0301C01FE0C0C8F
:100410002030C081FC000031F8C023008C063C3045
:10042000C1831C0C80300003FF00C0078033070726
:10043000000031F8C023008C063C30C183380C83A7
:10044000300C03FF00C00700330707000033F8C07B
:1004500023008C063C30C1831C0CC030FFC3FF005E
:100460000C7FF100C003000031FCC023008C063C6F
:1004700030C183380C8000FFC2000FF83FE08003DA
:10048000FF000031F8C023008C063C30C1833C0CD7
:100490008030FFC08C023008C02303FF000033F817
:1004A000C023008C063C30C38338CC8300FFC000DF
:1004B00003F010604081FC00001804FF2609304959
:1004C000824C33E113189984D827813009804C027B
:1004D00060001FE4C1260930CF844C626E13C098BF
:1004E000000FFE003001800C0060001FE4C12609EF
:1004F00030CF844C426C13C098000FBE0430218171
:100500000C08600019F2604981260CF82261899C70
:1005100026C0980083E2019806701B4078C000183E
:1005200004DF26093049847C626613E09C04C426FB
:1005300020010008007FE0001BE4C1260930CF84C1
:100540004C626E13C0980008FE4082061258EC60A0
:10055000001BE4C1260930CF8C4CC27C13804102C1
:1005600008FE41C219128CFFC0009BE4C12609306D
:10057000CF844C626E13C0980007FE200100080073
:100580007FE0001BE4C1260930CF8C4CC27C1300F5
:1005900000FFC0063FF10008007FE0001BE4C12619
:1005A0000930CF8C4CC27C130001F7C0867C32012D
:1005B000900CFC60001BE4C1260930CF8C4CC27C3F
:1005C000130001F7C1A67D3209904CFBE0001BE44B
:1005D000C1260930CF8C4CC27C130001F4C1A67D2A
:1005E000F209904CFBE00019F2604981260CF86298
:1005F0006309B8260000F880620F9820708363F8C2
:10060000C0001BE4C1260930CF8C4CC27C13000112
:10061000F7C1A07DE2081040FBE0001BE4C1260901
:1006200030CF8C4CC27C130001FFC1A47D22091085
:1006300048FFE0001BE4C1260930CF8C4CC2781380
:100640000061F301FE7CE20990C4FBC0001BE4C121
:10065000260930CF844C626E13C0980007FE20310B
:1006600001880C7FE0001BE4C1260930CF844C4296
:100670006C13C00080C4063FF101880C7FE00019B4
:10068000F2604981260CF8626309B82680008882EE
:10069000220F9822708B63F8C0001804DF260930FF
:1006A0004F864C626613E09C08C04007002C063061
:1006B000E0E00019F2604981260CF8226189982651
:1006C000C09821808602181C60D24638C0001BE406
:1006D000DF260930CF844C626613C0980003FC20EB
:1006E000230188083F80001BE4C1260930CF844CD9
:1006F000626E13C0980007FE0300380730E0E00088
:100700001BE4C1260930CF844C626C13C018080763
:10071000FE0200380330E0E0001BE4C1260930CFC0
:10072000844C626E13C098000FFE0030FF9E0C00D8
:1007300060001BE4C1260930CF8C4CC27C138000C2
:10074000FFC4003FE1FF08007FE0001BE4C1260971
:1007500030CF844C626E13C098000FFE08C0460272
:1007600030FFE0001BE4C1260930CF8C4CC27C1363
:100770008101FFCFFE0F81830C183F80002000878E
:10078000F20088023C0880620108082060F702300D
:10079000080020008002000033F8C023008F0630DC
:1007A00030C183DC0CC0300003FF000C003000C0FF
:1007B00003000033F8C023C08F063030C183DC0C47
:1007C000C0300007DF010C043010C043000033F8D4
:1007D000C023C08F063030C183DC0CC0300107C499
:1007E000011004E012C071800033F8CFE3008F06DF
:1007F0003010C0830C0FE03200C3030C003000C087
:1008000003FF000033F8C023C08C063030F183F8BA
:100810000C80018FC60C183060C1B687B1800033E0
:10082000F8C023C08C043030F383380C00419FE6BD
:1008300000187861119C479E000033F8C023C08FD8
:10084000063030C183DC0CC0300003FF08002000FC
:100850008003FF000031F8C023C08C043030F383E4
:10086000380C0000FFC0030FFC20008003FF0000D5
:1008700031F8C023C08C063030F383380C0001F708
:10088000C0431F0C603180C7E3000031F8C023C0B3
:100890008C063030F383380C0001F7C0531F4C41F5
:1008A0003104C7DF000031F8C023C08C043030F3BE
:1008B00083380C0001F4C0531F7C413104C7DF00B2
:1008C0000031F8C023C08C043030F383380C0001B1
:1008D000F100441F1840E106C7F1800031F8C02341
:1008E000C08C043030F383380C0001F7C0501F7CFB
:1008F00041010407DF000031F8C023C08C04303010
:10090000F383380C0001F7C0DA1F6841A10687FFA6
:10091000000031F8C023C08C043030F383380C0061
:1009200041F100FF9F3841310447DE000033F8C039
:1009300023C08C063030C183DC0CC030FFC3FF08FD
:100940000C203080C3FF000031F8C023C08C06307B
:1009500030F383380C800080C2030FFC203080C34A
:10096000FF000031F8C023C08C063030F383380C10
:1009700080019986661F9866619A47F9800031FC6C
:10098000C7E3008F063010C083CC0FE0300CC030BE
:1009900000C00780738703800031F8C023C08C0635
:1009A0003030C183DC0CC030610184061818E09639
:1009B000CC31800033F8C023008F063010C183CCC7
:1009C0000CC0301C01FE0C0C2030C081FC0000313A
:1009D000F8C023C08C063030C183DC0C80300003AB
:1009E000FF00C00780330707000031F8C023C08C28
:1009F000063030F183380C83300C03FF00C0070051
:100A0000330707000033F8C023C08C063030C183A1
:100A1000DC0CC030FFC3FF000C7FF100C0030000FE
:100A200031FCC023C08C063030F183F80C8000FF0D
:100A3000C2000FF83FE08003FF000031F8C023C080
:100A40008C063030F183FC0C8030FFC08C02300803
:100A5000C02303FF000033F8C023C08C063030F3FE
:100A600083F8CC8300FFC00003F010604081FC00DD
:100A7000001804FF2609304F824C32611318F987A1
:100A8000D827813009804C0260001FE4C13E09F084
:100A9000C9844C63EE13C098000FFE003001800C37
:100AA0000060001FE4C13E09F0C9844C43EC13C050
:100AB00098000FBE043021810C08600019F2604FCD
:100AC000813E0C9822618F9C26C0980083E2019899
:100AD00006701B4078C0001804DF2609F049844CDA
:100AE00062661FE09C04C42620010008007FE0002D
:100AF0001BE4C13E09F0C9844C63EE13C0980008A2
:100B0000FE4082061258EC60001BE4C13E0930C969
:100B10008C7CC27C1380410208FE41C219128CFFFA
:100B2000C0009BE4C13E09F0C9844C63EE13C09839
:100B30000007FE20010008007FE0001BE4C13E0921
:100B400030C98C7CC27C130000FFC0063FF1000856
:100B5000007FE0001BE4C13E0930C98C7CC27C13DD
:100B60000001F7C0867C3201900CFC60001BE4C1E0
:100B70003E0930C98C7CC27C130001F7C1A67D32CE
:100B800009904CFBE0001BE4C13E0930C98C7CC2DB
:100B90007C130001F4C1A67DF209904CFBE0001922
:100BA000F2604F81260C9863E309B8260000F880B4
:100BB000620F9820708363F8C0001BE4C13E0930C7
:100BC000C98C7CC27C130001F7C1A07DE2081040F3
:100BD000FBE0001BE4C13E0930C98C7CC27C1300E1
:100BE00001FFC1A47D22091048FFE0001BE4C13EC3
:100BF0000930C98C7CC278130061F301FE7CE209E4
:100C000090C4FBC0001BE4C13E09F0C9844C63EEF4
:100C100013C0980007FE203101880C7FE0001BE420
:100C2000C13E0930C9847C426C13C00080C4063FB9
:100C3000F101880C7FE00019F2604F81260C986367
:100C4000E309B82680008882220F9822708B63F80F
:100C5000C0001804DF3E09F049864C63E613E09CAF
:100C600008C04007002C0630E0E00019F2604F8118
:100C70003E0C9822618F9826C09821808602181C0D
:100C800060D24638C0001BE4DF3E09F0C9844C63E3
:100C9000E613C0980003FC20230188083F80001B56
:100CA000E4C13E09F0C9844C63EE13C0980007FE0E
:100CB0000300380730E0E0001BE4C13E0930C9847E
:100CC0007C63EC13C0180807FE0200380330E0E034
:100CD000001BE4C13E09F0C9844C63EE13C09800C8
:100CE0000FFE0030FF9E0C0060001BE4C13E093087
:100CF000C98C7CC27C138000FFC4003FE1FF080068
:100D00007FE0001BE4C13E09F0C9844C63EE13C0D0
:100D100098000FFE08C0460230FFE0001BE4C13E11
:100D20000930C98C7CC27C138101FFCFFE0F818307
:100D30000C183F80001001FE102102106107F0C165
:100D4000081181701C0100100100100017F1021041
:100D50002106F0C1181701C010003FF0010010017A
:100D600000100017F102102106F0C1181701C01081
:100D7000003FF06106106106100011FC4021008464
:100D800006F03041811C04C0100183E60198066022
:100D90001B4079C00013F89FC4042021027830471B
:100DA00002E01400840420010008007FE00013F832
:100DB000808404206F0608604E02C0101FC8FE40E9
:100DC000820E16D8EC600013F0808404206F0608B1
:100DD000E05C0200410208FE41C2111288F7C00027
:100DE00013F8808404206F0608604E02C0100007CC
:100DF000FC20010008007FE00013F0808404204FF5
:100E00000608E05C020000FF80043FE10008007F6C
:100E1000E00017F102102106F0C1381E010003FFA7
:100E20000613E12012013F100017F102102106F015
:100E3000C1381E010003FF0793F92192193FF0000A
:100E400017F102102106F0C1381E010003F90793C3
:100E5000FF2192193FF00011FC4021008406F03080
:100E6000438138040000F080420F1820708363F83B
:100E7000C00013F8808404206F0608E05C020001C3
:100E8000FF81E07FE21810C0FFE00013F8808404C7
:100E9000206F0608E05C020001EF8124792209102E
:100EA00048FFE00013F8808404206F0608E05C022D
:100EB0000061E3017E78C21910CCFBC00017F1027B
:100EC000102106F0C1181701C011FF1FF101101108
:100ED000011FF00017F102102106F0C1181F018058
:100EE00003013013FF3013013FF00011FC402100DB
:100EF0008406F03041813C0480008882220F9822D1
:100F0000708B63F8C00013F89F8404206F02783060
:100F10004702E0100880400700680630C0E000117A
:100F2000FC4021008406F03041811C04C010218067
:100F30008606181CE0D24630C00017F103102106C7
:100F4000F04F0C1301E010381EE3013011030FE0E5
:100F50000013F880C404206F0208604E02C0100025
:100F600007FC0200280670E0E00013F880C40420AB
:100F70006F0208604E028110080FFE0200380670F2
:100F8000E0E00017F102102106F0C1181701C013AC
:100F9000FF3FF0013FF00100100013F880840420AF
:100FA0006F0608605E028000FF84003FE1FF0800DA
:100FB0007FE00013F8808404206F0608604E02C0B2
:100FC00011FF8FFC1880C40620FFE00013F080841E
:100FD00004206F0608605C028101FFC0001F81824F
:100FE0000C103F80001804FF26093049864C3E61F2
:100FF000F3109984D827013009804C0260001BE669
:10100000DF3609B0FD87EC63661BC0D8000FFE0019
:101010003001800C0060001BE6DF3609B0FD87EC74
:10102000636E1BC0D8000FBE043021810C08600025
:1010300019F367CD81360FD823618D9836C0D8005B
:1010400083E2019806701B4078C0001806DF36095D
:10105000B04D87EC63661BE0DC06C4362031000827
:10106000007FE0001BE6C13609B0FD846C636E1B97
:10107000C0D80008FE4082061258EC60001BE6C192
:101080003609B0FD846CC37C1B80410208FE41C25E
:1010900019128CFFC0001BE6C13609B0FD846C63D9
:1010A0006E1BC0D80007FE20010008007FE0001B77
:1010B000E6C13609B0FD8C6CC37C1B0000FFC00686
:1010C0003FF10008007FE0001BE6C13609B0FD8C4F
:1010D0006CC37C1B0001F7C0867C3201900CFC6065
:1010E000001BE6C13609B0FD8C6CC37C1B0001F708
:1010F000C1A67D3209904CFBE0001BE6C13609B069
:10110000FD8C6CC37C1B0001F4C1A67DF209904CE0
:10111000FBE00019F3604D81360FD863630DB836DC
:101120000000F880620F9820708363F8C0001BE60F
:10113000C13609B0FD8C6CC37C1B0001F7C1A07DDA
:10114000E2081040FBE0001BE6C13609B0FD8C6CE4
:10115000C37C1B0001FFC1A47D22091048FFE000F1
:101160001BE6C13609B0FD8C6CC37C1B0061F3012A
:10117000FE7CE20990C4FBC0001BE6C13609B0FD4D
:10118000846C636E1BC0D80007FE203101880C7F81
:10119000E0001BE6C13609B0FD846C436C1BC0182F
:1011A00080C4063FF101880C7FE00019F3604D8197
:1011B000360FD823610D9836C0008882220F9822FE
:1011C000708B63F8C0001806DF3609B04D87EC63FA
:1011D000661BE0DC08C04007006C0630E0E0001948
:1011E000F3604D81360FD83F618D9C36C0D8218089
:1011F0008602181C60D24638C0001BE6DF3609B0F4
:10120000CD87EC63661BC0D80003FC2033018C083B
:101210003F80001BE6C13609B0FD846C636E1BC0C5
:10122000D80007FE0300380730E0E0001BE6C136B7
:1012300009B0FD846C436C1BC0180807FE0200381F
:101240000330E0E0001BE6C13609B0FD87EC636EB9
:101250001BC0D8000FFE0030FF9E0C0060001BE694
:10126000C13609B0FD8C6CC37C1B0000FFC4003F7D
:10127000E1FF08007FE0001BE6C13609B0FD846C89
:10128000636E1BC0D9FFCFFE08C0460230FFE000EE
:101290001BE6C13609B0FD8C6CC37C1B8101FFCFFE
:1012A000FE0F81830C183F80001001FE102103F017
:1012B000610610C109F19F701C01001001001000AF
:1012C00017F103103F06104119F701C010003FF05D
:1012D0000100100100100017F103103F0610411922
:1012E000F701C010003FF06106106106100011FC0C
:1012F000403100FC061010419F1C04C0100183E621
:10130000019806601B4079C00013F89FC407E021D4
:10131000030830473EE01400840420010008007FE9
:10132000E00013F8808407E061060867CE02C01071
:101330000008FE40820E16D8EC600013F880FC0412
:10134000206106F8E05C0200410208FE41C2111271
:1013500088F7C00013F880C407E061060867CE0272
:10136000C0100007FC20010008007FE00013F88097
:10137000FC04206106F8E05C020000FF80043FE10D
:101380000008007FE00017F103F0210610DF381E8F
:10139000010003FF0613E12012013F100017F103C3
:1013A000F0210610DF381E010003FF0793F9219298
:1013B000193FF00017F103F0210610DF381E01007D
:1013C00003F90793FF2192193FF00011FC403F0001
:1013D00084061037C38138040000F080420F1820C3
:1013E000708363F8C00013F880FC04206106F8E005
:1013F0005C020001FF81E07FE21810C0FFE00013F3
:10140000F880FC04206106F8E05C020001EF812412
:101410007922091048FFE00013F880FC04206106DF
:10142000F8C05C020061E3017E78C21910CCFBC0F9
:101430000017F102103F0610C119F701C011FF1F7C
:10144000F1011011011FF00017F102103F0610C149
:1014500019FF018003013013FF3013013FF0001129
:10146000FC402100FC061030419F3C048000888233
:10147000220F9822708B63F8C00013F89FC407E016
:1014800021020837C702E0100880400700680630D4
:10149000C0E00011FC403100FC061030419F1C04EC
:1014A000C01021808606181CE0D24630C00017F11B
:1014B00003103F0610410DF301E010381FE3013027
:1014C00011030FE00013F8808407E061060867CE7F
:1014D00002C0100007FC0200280670E0E00013F8CC
:1014E00080FC07E06106F867DC028110080FFE024D
:1014F00000380670E0E00017F102103F0610C11935
:10150000F701C013FF3FF0013FF00100100013F896
:10151000808407E061060867DE028000FF84003FE8
:10152000E1FF08007FE00013F8808407E06106080F
:1015300067CE028011FF8FFC1880C40620FFE000F8
:1015400013F880FC04206106F8E05C020101FFC092
:10155000001F81820C103F80001806FF3609B07D05
:1015600087EC23611B13D986D83701B00D806C033B
:1015700060001BE6DF360FB0CD846C6F661BC0D8F1
:10158000000FFE003001800C0060001BE6DF360F0C
:10159000B0CD846C6F661BC0D8000FBE04302181B3
:1015A0000C08600019F3604D81F60CD823613D985A
:1015B00036C0D80083E2019806701B4078C000183E
:1015C00006DF3609B07D866C63667B60DC06C43658
:1015D00020010008007FE0001BE6C1360FB0CD847B
:1015E0006C4F6C1BC0D80008FE4082061258EC609D
:1015F000001BE6C1360FB0CD8DECC37C1B804102D1
:1016000008FE40C219128CFFC0001BE6C1360FB0A5
:10161000CD846C4F6C1BC0D80007FE200100080071
:101620007FE0001BE6C1360FB0CD8DECC37C1B0004
:1016300000FFC0063FF10008007FE0001BE6C1F696
:101640000FB0CD8DECC37C1B0001F7C0867C32014E
:10165000900CFC60001BE6C1F60FB0CD8DECC37C96
:101660001B0001F7C1A67D3209904CFBE0001BE690
:10167000C1F60FB0CD8DECC37C1B0001F4C1A67D7B
:10168000F209904CFBE00019F3607D81F60CD86FF5
:10169000630DB8360000F880620F9820708363F8FD
:1016A000C0001BE6C1F60FB0CD8DECC37C1B000162
:1016B000F7C1A07DE2081040FBE0001BE6C1F60F79
:1016C000B0CD8DECC37C1B0001FFC1A47D220910AD
:1016D00048FFE0001BE6C1F60FB0CD8DECC3781BD0
:1016E0000061F301FE7CE20990C4FBC0001BE6C16F
:1016F000360FB0CD846C4F6C1BC0D80007FE203174
:1017000001880C7FE0001BE6C1360FB0CD846C4F22
:101710006C1BC01880C4063FF101880C7FE00019E3
:10172000F3604D81F60CD823613D9836C01888824D
:10173000220F9822708B63F8C0001806DF360FB0B6
:101740004D846C6F661BE0DC00C04007002806304B
:10175000E0E00019F3604D81F60CD823613D983626
:10176000C0D821808602181C60D24638C0001BE613
:10177000DF360FB0CD846C6F6E1BC0D80003F8202D
:10178000230188083F80001BE6C1360FB0CD846C72
:101790004F6C1BC0D80007FE0300380730E0E000A4
:1017A0001BE6C1360FB0CD846C4F6C1BC018080708
:1017B000FE0200380330E0E0001BE6C1360FB0CD7A
:1017C000846C4F6C1BC0D8000FFE0030FF9E0C00D5
:1017D00060001BE6C1360FB0CD8C6CCF7C1B800047
:1017E000FFC4003FE1FF08007FE0001BE6C1360FA9
:1017F000B0CD846C4F6C1BC0D8000FFE08C04602F1
:1018000030FFE0001BE6C1F60FB0CD8DECC37C1BB2
:101810000101FFCFFE0F81830C183F807FF0018014
:101820000C006003031818C0C40600303FFE7FF0B0
:1018300001800C0C60630303FFFFFF0003FF800CBB
:1018400000600300187FF001800C0C60630303FF4D
:10185000E0000003EF810C08604302187FF0018074
:101860000C0C60620303FFE0000003E2011009C0FA
:101870004A038C7FF001800C0060630310181FFF87
:1018800000010008004002001FF87FF001800C0CEE
:1018900060620303FFE00000031F9830C1865A3DD9
:1018A0008C7FF001800C0C60620303FFE01860C3C2
:1018B0003FD830C666613EF07FF001800C0C60625C
:1018C0000303FFE0000001FF88004002001FF87FD3
:1018D000F001800C0C60607FFC0000007FF0019F35
:1018E000FCC006003FF87FF001800C0C606203032F
:1018F000FFE0007DF0208104F826013F087FF00121
:10190000800C0C60620303FFE0007DF0289F44C25E
:1019100026113FF87FF001800C0C60620303FFE0AA
:10192000007D10289F7CC226113FF87FF001800CBB
:101930000C60620303FFE0007C40221F18C1C60B4D
:101940003F8C7FF001800C0C60607FFFFFE0007D2A
:10195000F0281F7CC206103FF87FF001800C0C605D
:10196000627FFFFFE0007DF0251F28C1460A3EF898
:101970007FF001800C0C60617FFFFFE0087C403F3E
:10198000DF18C366113F787FF001800C0C606203A2
:1019900003FFE0000003FF980CC066033FF87FF0F0
:1019A00001800C0C60620303FFE0002031018FFC1A
:1019B0004062031FF87FF001800C0C60620303FF9C
:1019C000E0004442221F1889C44B3F8C7FF0018005
:1019D0000C0C60620303FFE00000001000C00A016D
:1019E0008C38387FF001800C0C60620303FFE0004C
:1019F0001840C2061031425B618C7FF001800C0CF4
:101A000060620303FFE0000000FE080CC062030FE9
:101A1000E07FF001800C0C60620303FFE000000334
:101A2000FF80C00E01CC38387FF001800C0C606262
:101A30000303FFE0000201FF80800E00CC38387FF6
:101A4000F001800C0C60620303FFE0000003FF80E4
:101A50000C3FE78300187FF001800C0C60620303E9
:101A6000FFE0003FF10008007FE2001FF87FF00177
:101A7000800C0C60620303FFE0000003FF82301162
:101A8000808C3FF87FF001800C0C60607FFC0000D0
:101A9000407FF3FF83E060C3020FE000200087F285
:101AA0000048012004811204CF132040810A3FE83E
:101AB0000020008002000031FCC013004C113C4C9F
:101AC000F10305ECFC3000C3FF000C003000C00344
:101AD000000031FCC013004C113C4CC10307ECFC6E
:101AE000300007DF010C043010C043000031FCC09F
:101AF00013004C113C4CC1033FECF8300007C4010B
:101B000018046012C071800031FCC7F3004C013032
:101B100044F133040CFFB000C003080C2000800324
:101B2000FF000031FCC013004C113C4CC1033FECE2
:101B3000003000063F181060C1B687B1800031FC4C
:101B4000C013004C113C4CC10B3FEC000001063FA0
:101B5000980061F19C479F000031FCC013004C11BC
:101B60003C4CC1033FEC80300003FF0800200080A4
:101B700003FF000031FCC013004C113C4CC10B3F73
:101B8000CC0000FFC0030FFC20008003FF000031E9
:101B9000FCC013004C113C4CC10B3FCC0031F7C0D2
:101BA00043010C7C3180C7E3000031FCC013004CC2
:101BB000113C4CC10B3FCC0031F7C053014C7D317F
:101BC00084C7DF000031FCC013004C113C4CC10B3A
:101BD0003FCC0001F4C053017C7D3184C7DF00009D
:101BE00031FCC013004C113C4CC10B3FCC0001F147
:101BF000004401107CE186C7F1800031FCC0130075
:101C00004C113C4CC10B3FCC0001F7C05001407D52
:101C1000F18407DF000031FCC013004C113C4CC1C3
:101C20000B3FCC0031F7C04A01287CA18287DF003E
:101C30000031FCC013004C113C4CC10B3FCC0001E7
:101C4000F1007F81107DB18447FF000031FCC0139B
:101C5000004C113C4CC1033FEC00300003FF080C6A
:101C6000203080C3FF000031FCC013004C113C4CFD
:101C7000C1033FEC003080C2030FFC203080C3FF63
:101C8000000031FCC013004C113C4CC1073FEC007C
:101C9000319186461F18646192C7D9800031FCC01B
:101CA00013004C01304CF10307ECFC3000C0300055
:101CB000C00780330703800031FCC013004C113C87
:101CC0004CC1033FEC0030000184061018A196CCF3
:101CD00071800031FCC013004C113C4CC1033FEC3F
:101CE000F03000C1FC0C082030C081FC000031FC49
:101CF000C013004C113C4CC1033FEC00300003FF0B
:101D000000C00700330707800031FCC013004C11EE
:101D10003C4CC1073FEC00300C03FF00C003003314
:101D20000787800031FCC013004C113C4CC1033FBD
:101D3000EC00300003FF000C0071FEC00300003116
:101D4000FCC013004C113C4CC11B3FCC0000FFC237
:101D50000008003FE08003FF000031FCC013004C8E
:101D6000113C4CC1033FEC00300003FF023008C0BF
:101D70002303FF000031FCC013004C113C4CC10B8D
:101D80003FCC00300C07FF00001FE04081FE000048
:101D90001804FFA60D3069834C9A649F209904DFD4
:101DA000A7F13009804C0260009FF4C1A60D306F8E
:101DB0009B7CC267D3F89800CFFE003001800C00F6
:101DC00060009FF4C1A60D306F9B7CC267D3F8986A
:101DD000000FBE0C3061830C1860009BFA606981B3
:101DE000A606F8DA6309BFA680980003E201980608
:101DF000601B4078C0009FF4FFA60D30699B7CCA31
:101E00006613FE9804CC266033001800FFE0009FA4
:101E1000F4C1A60D306F9B4CC27FD3809800087E22
:101E200040C2061258FC60009FF4C1A60D336F9AA1
:101E30004CC27FD300000208FE40021F128CF7C084
:101E4000009FF4C1A60D306F9B4CC27FD3809800D9
:101E50000FFE6003001800FFE0009FF4C1A60D33E1
:101E60006F9A4CC27FD30001FFC0060033FF980079
:101E7000FFE0009FF4C1A60D336F9A4CC67FD300DC
:101E800001F7C0860433E1900CFC60009FF4C1A60A
:101E90000D336F9A4CC67FD30003FFC1E60F33F9B1
:101EA00090CCFFE0009FF4C1A60D336F9A4CC67F23
:101EB000D30003FCC1E60FF3F990CCFFE0009BFADE
:101EC000606981A636F8D26319BFA60001F8806266
:101ED00001983E708363F8C0009FF4C1A60D336F74
:101EE0009A4CC67FD30003FFC1E00F03FF10C0FF71
:101EF000E0009FF4C1A60D336F9A4CC67FD3000358
:101F0000FFC1A40D23E91048FFE0009FF4C1A60D16
:101F1000336F994CCA7FD30003E3017E08C3C91015
:101F2000CCFBC0009FF4C1A60D306F9B4CC27FD389
:101F3000C098000FFE603301980CFFE0009FF4C1D1
:101F4000A60D336F9B4CC27FD3009980CC067FF3E4
:101F500001980CFFE0009BFA606981A636F8DA630D
:101F600009BFA600998886221F9862718B67F8C006
:101F7000009FF4FFA60D306F9B4CC26653FC980087
:101F8000C0400200280670E0E0009BFA606981A66C
:101F900006F8DA6309BFA6F09800008606181C60F0
:101FA000DA4630C0009FF4C1A60D306F9B4CC2666C
:101FB000D3FC9800C3F830630198087F80009FF439
:101FC000C1A60D306F9B4CC27FD3C098000FFE029C
:101FD00000380770E0E0009FF4C1A60D336F9B4C02
:101FE000C27FD30098080FFE0200380760E0E000CF
:101FF0009FF4C1A60D306F9B4CC27FD3C098000FD9
:10200000FE00301F9F8C0060009FF4C1A60D336F4F
:102010009A4CC27FD30001FFCC006003FF9800FF01
:10202000E0009FF4C1A60D306F9B4CC27FD3C098D7
:10203000000FFE18C0C60630FFE0009FF4C1A60DD9
:10204000336F9A4CC67FD30018080FFE0000FF0CB8
:10205000183F800010017F10110110111911911902
:102060001181185FFD00100100100017F10110111F
:1020700001119118119DFF10013FF00100100100A6
:10208000100017F10110110111911811BDFE10017E
:102090003FF06106106106100011FC401100440180
:1020A000106441813FF400100007C601180460135A
:1020B0004059C00013F880440220110C8864430288
:1020C000FFD00080046023001800FFE00013F880B8
:1020D000440220110C88605FFA80100008FE4082E4
:1020E0000E16D8EC600013F880440221910C886130
:1020F0005FF200100208FE40021F1288F7C00017AE
:10210000F1011011011191181FFDE010003FF300C3
:102110003003003FF00013F880440221910C8863E3
:102120005FF20001FF80040023FF1800FFE00017AA
:10213000F101101119119118DFF90003FF06106168
:102140003E12013F100017F101101119119118DF13
:10215000F90003DF0590593D92193FF00017F10196
:10216000101119119118DFF90003D905905F3D9204
:10217000193FF00011FC40110044191064418D3FDB
:10218000E40000F0804201183C708343F8C000175F
:10219000F101101119119118DFF90003DF058058C2
:1021A0003DF2183FF00013F880440221910C88633F
:1021B0005FF20001EF812C0963CB1058FFE00013A0
:1021C000F880440221910C88635FE20001E3017E04
:1021D00008C3C910C8FBC00017F10110110111910B
:1021E000181FFD8010003FF3013013013FF000176E
:1021F000F1011011191191181FFD0013013013FF87
:102200003013013FF00011FC4011004419106441EB
:10221000813FF400108882220F9822708B63F8C0EF
:102220000013F880440220110C886043FAFE10006D
:1022300080440600780670C0E00013F88044022055
:10224000110C88605FFA001000021010C1461B5983
:102250008C200017F10110110111911811FDFC10D3
:10226000010FE3033013031FE00013F88044022141
:10227000910C88605FFA0010000FFC0600380661C0
:10228000E0E00013F880440221910C88615FF200C5
:1022900010180FFC0600380661E0E00017F101108D
:1022A00011011191181FFD8010003FF00101F3F1A1
:1022B00000100013F880440221910C88635FF20043
:1022C00001FF8C006003FF1800FFE00013F880445A
:1022D0000220110C88605FFA0010000FFC1880C407
:1022E0000620FFE00013F880440221910C88635F10
:1022F000E20110080FFE0601CE08183F807FF001B2
:10230000800C0060030C9864C3241900C83FFE7F52
:10231000F001800C3261930C80641FFF0003FF808A
:102320000C00600300187FF001800C3261930C8078
:10233000641FFF0003EF810C08604302187FF00167
:10234000800C3261930C83FFFFFF0003E201100950
:10235000C04A038C7FF001800C0061930C98641FCD
:10236000FF00010008004002001FF87FF001800C10
:102370003261930C83FFE00000031F9830C1865A3E
:102380003D8C7FF001800C3261930C83FFE018607C
:10239000C33FD830C666613EF07FF001800C3261E9
:1023A000930C83FFE0000001FF88004002001FF84B
:1023B0007FF001800C3261907FFC0000007FF00113
:1023C0009FFCC006003FF87FF001800C3261910C49
:1023D00083FFE0007DF0208104F826013F087FF0B4
:1023E00001800C3261910C83FFE0007DF0289F4456
:1023F000C226113FF87FF001800C3261910C83FFFF
:10240000E0007D10289F7CC226113FF87FF00180FC
:102410000C3261910C83FFE0007C40221F18C1C682
:102420000B3F8C7FF001800C3261910C83FFE00048
:102430007DF0281F7CC3E6103FF87FF001800C324E
:1024400061917FFFFFE0007DF0251F28C1460A3E15
:10245000F87FF001800C3261907FFFFFE0087C4044
:102460003FDF10C366113F787FF001800C3261932B
:102470000C83FFE0000003FF980CC066033FF87F69
:10248000F001800C3261930C83FFE0002031018F5A
:10249000FC4062031FF87FF001800C3261920C83D4
:1024A000FFE0004442221F1889C44B3F8C7FF0009C
:1024B00080043261930C83FFFFFF00001000C00A0C
:1024C000018C38387FF001800C3261930C83FFE07F
:1024D000001840C2061031425B618C7FF001800C15
:1024E0003261930C83FFE0000000FE080CC0620321
:1024F0000FE07FF001800C3261930C83FFE000005D
:1025000003FF80C00E01CC38387FF001800C3261AF
:10251000920C83FFE0000201FF80800E00CC38386F
:102520007FF001800C3261930C83FFE0000003FF19
:10253000800C3FE78300187FF001800C3261910C22
:1025400083FFE0003FF10008007FE2001FF87FF00A
:1025500001800C3261930C83FFE0000003FF8230A6
:1025600011808C3FF87FF001800C3261907FFC007D
:1025700000407FF3FF83E060C3020FE03FF0018083
:102580000C0060030010009FFF0200100080040098
:102590002001003FF000C003000C0033FFF02000DA
:1025A000800201FFC003000C003000C03FF000C0FB
:1025B00003000C0033FFF02000800201F7C043014C
:1025C0000C043010C03FF000C003000C0033FFF0DB
:1025D0002000800201F10044013804A01C603FF09B
:1025E00000C003000C0030008FFFC0800200880292
:1025F0002008002000FFC03FF000C003000C0023B3
:10260000FFF020008000018FC60C183065A1EC603F
:102610003FF000C003000C0023FFF02000B060C1B9
:102620009FE60C18CC6611F7803FF000C003000C49
:102630000033FFF02000800201FFC6001800600197
:10264000FFC03FF000C003000C0023FFF02000801B
:102650007FF000C7FF18006001FFC03FF001800C51
:102660000060027FFC0800407DF0208104F8260114
:102670003F883FF001800C0060027FFC0800407D35
:10268000F0289F44C226113FF83FF001800C006003
:10269000027FFC0800407D10289F7CC226113FF875
:1026A0003FF001800C0060027FFC0800407C40226B
:1026B0001F18C1C60B3F8C3FF001800C0060027FE9
:1026C000FC0800407DF0281F7CC206103FF83FF058
:1026D00001800C0060027FFC0800407DF0251F286F
:1026E000C1460A3EF83FF001800C0060027FFC0802
:1026F00000487C403FDF38C326113F783FF000C0E0
:1027000003000C0023FFF02000800200FFC203083A
:102710000C2030FFC03FF000C003000C0023FFF08E
:10272000200080223080C3FF080C2030FFC03FF023
:1027300000C003000C0023FFF0200080444111077B
:10274000C6113844B1FC603FF000C003000C002308
:10275000FFF0200080020008002001C01DC1C1C0A0
:102760003FF000C003000C0023FFF02000801A405F
:10277000610184062825B30C603FF000C003000C03
:102780000023FFF020008002007F8203180C20301D
:102790007F803FF000C003000C0023FFF02000808A
:1027A0000201FFC03001C01CC1C1C03FF000C00326
:1027B000000C0023FFF02000000200FFC02001C039
:1027C0000DC1C1C03FF000C003000C0023FFF0208A
:1027D00000800201FFC0031FFC603000C03FF0001A
:1027E000C003000C0023FFF02000803FF08003FFB7
:1027F00008002000FFC03FF000C003000C0023FFD2
:10280000F02000800201FFC08C023008C1FFC03FF1
:10281000F000C003000CFFFFFFF02000800201FF6A
:10282000C0780E1830207F800017F17F1011011042
:1028300011031FFD08108109F081081081001000AC
:1028400017F101101101103DFE108108F0813FF3D6
:10285000FF00100100100017F101101101103DFEE2
:10286000108108F0813FF3FF06106106100013F895
:10287000804402201103EBF8411E0810408F980C91
:10288000C06603681E600013F88044022011018BAB
:10289000FF410208F0478A044022001000FFE000D8
:1028A00013F880440220117FEB20411E081000081D
:1028B000FE40820E16D8EC600013F88044022031EE
:1028C0007FE820411E08100208FE40021F128CF70C
:1028D000C00017F1011011011FFDF8108F081081C1
:1028E0003FF3003003003FF00013F8804402203132
:1028F0007FE820411E0811FF80040023FF1800FF1D
:10290000E00017F1011011031FFD08108F0813FFDD
:102910000610613E12013F100017F1011011031F54
:10292000FD08108F0813DF0590593D92193FF00004
:1029300017F1011011031FFD08108F0813D905901E
:102940005F3D92193FF00013F880440220317FE888
:1029500020411E0811E3011808C3C71068FE2000BB
:1029600013F880440220317FE820411E0811EF81D6
:10297000600B03DF10C0FFE00013F8804402203139
:102980007FE820411E0811EF812C0963CB1058FF0E
:10299000E00013F880440220317FE820411E081136
:1029A000E3017E0803CF10C8FBC00017F10110112E
:1029B000011FFDE8108F0810003FF3013013013FA5
:1029C000F00017F1011011011FFD08108F08100011
:1029D0003013FF3013013FF00013F8804402201140
:1029E0007FE820411E08111108887CC2271168FE6B
:1029F000200013F8804402201101EBFE410208F090
:102A00004080440600380661E0E00013F88044028C
:102A100020117FEA20411E081000021810C1461B39
:102A2000498C200017F101101101103DFE108F0894
:102A3000F0810FE1033013031FE00013F88044021C
:102A400020117FEB20411E0810000FFC0600380605
:102A500061E0E00013F880440220117FE820411E6D
:102A60000810180FFC0600380661E0E00017F101BD
:102A70001011011FFDE8108F0810003FF0010073D6
:102A8000FD00100013F880440220317FE820411E31
:102A90000811FF8C006003FF1800FFE00013F880AE
:102AA000440220117FEA20411E0810000FFE18800A
:102AB000C40620FFE00013F880440220317FE820A4
:102AC000411E0810080FFE0001FE08183F80001884
:102AD00006FFB60DB04D826C137FFB10D886C4F68E
:102AE00021B10D886C006000DBE6C13609B04D8273
:102AF000EFFB621B13D886C0007FF001800C0060E2
:102B000000DBE6C13609B04D82EFFB621B13D886AD
:102B1000C0007DF061830C186000D9F3604D8136F0
:102B200004D81F6FCD84F610D80003E20198066028
:102B30001B4078C000DBE6DF3609B04D826FFF62D4
:102B40001B13D89EC0366033001800FFE000DBE6A0
:102B5000C13609B04D87EFE3627B10D800087E4094
:102B6000C2061258FC6000DBE6C13609B04DFFEC2E
:102B700043627B10D80208FE40021F128CF7C0008F
:102B8000DBE6C13609B04D83EFF3627B10D800CF8E
:102B9000FE7FF3001800FFE000DBE6C13609B04D10
:102BA000FFEC43627B10D9FFC0060033FF9800FFA3
:102BB000E000DBE6C13609B04DFFEC43627B10D884
:102BC000000FBE0C33E1900CFC6000DBE6C136095F
:102BD000B04DFFEC43627B10DBFFDFFE0F37F9B037
:102BE000CDFFE000DBE6C13609B04DFFEC43627B70
:102BF00010DBFCDFE60FF7F9B0CDFFE000D9F360A2
:102C00004D813604DBFF610D84F610D9F887E201AF
:102C1000987E718347F8C000DBE6C13609B04DFFEE
:102C2000EC43627B10DBFFC1FE0F07FF30C1FFE00A
:102C300000DBE6C13609B04DFFEC43627B10DBFFE1
:102C4000C1FE0D27E93049FFE000DBE6C13609B0DF
:102C50004DFFEC43627B10DBE3017E0807CF30CDF4
:102C6000FBC000DBE6C13609B04D83EFF3627B1099
:102C7000D800CFFE603301980CFFE000DBE6C136E0
:102C800009B04D87EFE3627B10D8000C067FF3019B
:102C9000980CFFE000D9F3604D813604DBFF6F0D27
:102CA00084F610D80006221F9862718B67F8C00066
:102CB0001BE6C13609B04D826FFF621B13D886C474
:102CC000460600380661E0E000D9F3604D81360425
:102CD000D81F6FCD84F610D800608602181C60D211
:102CE0004630C000DBE6C13609B04D83EFFB627BA6
:102CF00013D886C1F0306301980C7FC000DBE6C1B9
:102D00003609B04D83EFF3627B10D800CFFE02008E
:102D1000380770E0E000DBE6C13609B04DFFEFC3D5
:102D2000627B10D808C0407FF0380360E0E000DB31
:102D3000E6C13609B04D83EFF3627B10D800CFFEB9
:102D40000030019FFC006000DBE6C13609B04DFF9A
:102D5000EC43627B10D8000FFE6003FF1800FFE019
:102D600000DBE6C13609B04D83EFF3627B10D8007B
:102D7000CFFE18C0C60630FFE000DBE6C13609B062
:102D80004DFFEC43627B10D8080FFE0000FE0C18CC
:102D90003F800017F17F1011011011031FFDF81083
:102DA0008108108108108100100017F10110110135
:102DB0001031FFD0810810803FF001001001001099
:102DC0000017F1011011011031FFD0810810803F70
:102DD000F06106106106100013F880440220110112
:102DE0008BFF41020810401F1808C0460278166089
:102DF0000013F8804402201100883F5F820C1060AD
:102E00008B044022001000FFE00013F880440220F1
:102E100011018BFF410208104018FCC0860E36D904
:102E2000EC600013F8804402201101EBFE4102081F
:102E3000100208FE40021F1288F7C00017F10110AF
:102E400011011031FFD0810810803FF300300300E2
:102E50003FF00013F8804402201103EBF041020818
:102E600001FF80047FE3001800FFE00017F101106C
:102E70001101103DFF10810803FF0613E12012012C
:102E80003F100017F101101101103DFF10810803E0
:102E9000DF0593D92192193FF00017F101101101BC
:102EA000103DFF10810803D90593DF2192193FF0EF
:102EB0000013F8804402201101EBFC41020801E3F9
:102EC000011878C2071068FE200017F101101101E7
:102ED000103DFF10810803DF0583D821F2183FF071
:102EE0000017F101101101103DFF10810803DF04EC
:102EF000B3CB20B20B3FF00013F880440220110145
:102F0000EBFC41020803E2017E78C2191088FBC085
:102F10000017F1011011011011FFD0810810803F3E
:102F2000F3013013013FF00017F101101101103DC2
:102F3000FF10810813013013FF3013013FF000131D
:102F4000F8804402201101EBFC410208113309987A
:102F50007CC2671368FE200013F880440220110031
:102F60008BFF410208104082440300280630E0E055
:102F70000013F8804402201101ABFF410208100049
:102F8000021010C1CE1A598C600017F10110110106
:102F90001011FFDC810810811FE3032013031FE0E1
:102FA0000013F88044022011018BFF4102081040F9
:102FB0000FFC0600380661E0E00013F880440220B0
:102FC0001101EBFE41020810180FFC0600300661EB
:102FD000E0E00017F1011011011031FFD08108105D
:102FE000803FF0013FF38100100013F8804402207D
:102FF0001101EBFC41020801FF8C006003FF180087
:10300000FFE00017F1011011011031FFD08108100D
:10301000803FF0C40C40C43FF00017F101101101D3
:10302000107DFC10810910103FF0781861020FE04C
:103030003FF001800C0060020010009FFF18C0C626
:10304000063031818C0C603FF000C003000C00336F
:10305000FFF18C063018C1FFC003000C003000C027
:103060003FF000C003000C0033FFF18C063018C1A4
:10307000F7C043010C043010C03FF000C003000C47
:103080000033FFF18806201881F10044013804A0C4
:103090001C603FF000C003000C0030008FFFC33005
:1030A0000CC1B3060018006001FFC03FF000C00370
:1030B000000C0023FFF18C063018C18FC60C1830AD
:1030C00065A1EC603FF000C003000C0023FFF18C11
:1030D000063000419FE600187C6611F7803FF00043
:1030E000C003000C0033FFF18C063018C1FFC6008E
:1030F00018006001FFC03FF000C003000C0023FF78
:10310000F18C06307FF000C7FF18006001FFC03F60
:10311000F001800C0060027FFC6303187DF02081C9
:1031200004F826013F883FF001800C0060027FFC1C
:103130006303187DF0288144FA26113FF83FF0011F
:10314000800C0060027FFC6303187D10289F7CC206
:1031500026113FF83FF001800C0060027FFC630302
:10316000187C40221F18C1C60B3F8C3FF001800C19
:103170000060027FFC6303187DF0281F7CC3E6100B
:103180003FF83FF001800C0060027FFC6303187D74
:10319000F0251F28C1460A3EF83FF001800C006070
:1031A000027FFC6303187C403FDF38C326113F7861
:1031B0003FF000C003000C0023FFF18C063018C064
:1031C000FFC203080C2030FFC03FF000C003000C1A
:1031D0000023FFF088022028B080C3FF080C2030B5
:1031E000FFC03FF000C003000C0023FFF188062061
:1031F00044411107C6113844B1FC607FF001800CD6
:103200000060020013FFE20810409200C00A01CCE7
:1032100038383FF000C003000C0023FFF18C06306B
:103220000000610184062825B30C603FF000C00354
:10323000000C0023FFF184061018407F8203180C55
:1032400020307F803FF000C003000C0023FFF18C92
:10325000063018C1FFC03001C01CC1C1C03FF00022
:10326000C003000C0023FFF18406900200FFC02081
:1032700001C00CC1C1C03FF000C003000C0023FF1F
:10328000F18C063018C1FFC0031FFC603000C03F46
:10329000F000C003000C0023FFF18C06303FF080EB
:1032A00003FF08002000FFC03FF000C003000C0037
:1032B00023FFF18C063018C1FFC08C023008C1FF1B
:1032C000C03FF000C003000CFFFFFFF18406907FB9
:1032D000F1FFC0F80C1830207F007FF001800C0057
:1032E000600300100080040020003FFE3FF000C09B
:1032F00003000C0030008FFFC0000001FFC003007E
:103300000C003000C03FF000C003000C0030008F04
:10331000FFC0000001F7C043010C043010C03FF0B3
:1033200000C003000C0030008FFFC0000041F1001E
:1033300044013804B01C603FF000C003000C0030B2
:10334000008FFFC000000080020008002000FFC0C6
:103350003FF001800C0060030013FFE00000031F3A
:103360009830C1865A3D8C3FF001800C0060037F8D
:10337000FFFFE01860C33FD830C666613EF03FF003
:1033800001800C0060037FFFFFE0000003FF980056
:10339000C006003FF83FF000C003000C0023FFF020
:1033A000001FFC7FF000C7FF18006001FFC03FF066
:1033B00001800C0060027FFC0000007DF0209F0473
:1033C000C026013F883FF001800C0060027FFC00B6
:1033D00000007DF0289F44C226113FF83FF0018095
:1033E0000C0060027FFC0000007D10289F7CC2263C
:1033F000113FF83FF001800C0060027FFC000000EC
:103400007C40221F18C1C60B3F8C3FF001800C008E
:1034100060027FFC0000007DF0281F7CC206103F88
:10342000F83FF001800C0060027FFC0000007DF09E
:10343000251F28C1460A3EF83FF001800C006002BB
:103440007FFC0000087C403FDF38C326113F783FF7
:10345000F000C003000C0030008FFFC0000000FF30
:10346000C203080C2030FFC03FF000C003000C0076
:1034700023FFFFFFC000203080C3FF080C2030FF77
:10348000C03FF000C003000C0023FFFFFFC000445A
:10349000411107C6113844B1FC607FF001800C0077
:1034A00060020013FFE00002001000C00A018C3827
:1034B000383FF000C003000C0030008FFFC0001840
:1034C00040610184062825B30C603FF001800C00A8
:1034D00060030013FFE0000000FF080CC062030F50
:1034E000E03FF000C003000C0033FFFFFFC000000E
:1034F00001FFC03001C01CC1C1C03FF000C00300CB
:103500000C0023FFF00000800200FFC02001C00C6F
:10351000C1C1C03FF000C003000C0030008FFFC0ED
:10352000000001FFC0031FFC403000C03FF00180DD
:103530000C0060027FFC0000003FF1000FFC7FE206
:10354000001FF83FF000C003000C0030008FFFC0E8
:10355000000001FFC08C023008C1FFC03FF000C076
:1035600003000C0023FFF00000807FF00000FC0C43
:103570001830207F000010017F1011011011011080
:1035800011011001FFDF0100100100100017F1010F
:10359000101101101103DFF10010003FF0010010C5
:1035A0000100100017F101101101101103DFF100EB
:1035B00010003FF06106106106100013F88044020D
:1035C000201100880F5FE20010001F1808C046029B
:1035D0007816600013F8804402201100880C5FFA0E
:1035E0000010008C046003001800FFE00013F88056
:1035F0004402201100880F5FE200100018FCC08612
:103600000E36D9EC600013F8804402201100880FB8
:103610005FC200100208FE40021F1288F7C00017A8
:10362000F10110110110111FDFC10010003FF30064
:103630003003003FF00013F8804402201101ABFE7C
:1036400040020001FF80047FE3001800FFE0001744
:10365000F1011011011031FFD0010003FF0613E149
:103660002012013F100017F1011011011031FFD09D
:10367000010003DF0593D92192193FF00017F101F2
:103680001011011031FFD0010003D90593DF219201
:10369000193FF00013F88044022011008BFF400214
:1036A0000001E3011878C2071068FE200017F1013D
:1036B0001011011031FFD0010003DF0583D821F282
:1036C000183FF00017F1011011011011FFD0010097
:1036D00003DF04B3CB20B20B3FF00013F8804402A9
:1036E0002011008BFF40020003E2017E78C2191016
:1036F00088FBC00017F10110110110111FDFC1007C
:1037000010003FF3013013013FF00017F1011011D9
:103710000110111FDFC10013013013FF3013013FEF
:10372000F00013F8804402201100887F5F820011AE
:103730003309987CC2671368FE200013F8804402A6
:10374000201100880D5FF200100080400300280661
:1037500030E0E00013F8804402201100880F5FC2BF
:10376000001000021010C1CE1A598C600017F10130
:10377000101101101103DFF90010001FE3033013D3
:10378000031FE00013F8804402201100883F5F828D
:103790000010000FFC0600380661E0E00013F8801E
:1037A00044022011008BFF5C020010180FFC060081
:1037B000380661E0E00017F10110110110111FDF60
:1037C000C10010003FF0013FF38100100013F880AA
:1037D00044022011008BFF40020001FF8C006003B7
:1037E000FF1800FFE00017F10110110110111FDF99
:1037F000C10010003FF0C40C40C43FF00017F101BD
:103800001011011031FFD0010110103FF07C186140
:10381000020FE00010017F10310210210610410C50
:103820001181301E0100100100100017F10310215A
:10383000061041181701C010003FF00100100100F0
:10384000100017F1031021061041181701C01000D5
:103850003FF06106106106100013F880C404206177
:103860000608605E028010030F980CC06603681E95
:10387000600013F89FC40620210308304702E014BB
:10388000008C046003001800FFE00013F880C404FB
:1038900020610208604E02C0101FC8FE40820E1652
:1038A000D8EC600013F880C40420610608605C0254
:1038B00000410208FE41C2131288F7C00013F880CD
:1038C000C40420610208604E02C0100007FC200101
:1038D0000008007FE00013F880C40420610608E0BF
:1038E0005C020001FF80047FE3001800FFE0001786
:1038F000F10310210610C1381E010003FF0613E179
:103900002012013F100017F10310210610C1381ECC
:10391000010003FF0793F92192193FF00017F1030B
:1039200010210610C1381E010003D90593DF219232
:10393000193FF00011FC40310084061030438138FB
:10394000040000F080420F1820708363F8C0001755
:10395000F10310210610C1381E010003DF0583DFCB
:103960002182183FF00013F880C40420610608E0AB
:103970005C020001EF812C79620B1058FFE000130C
:10398000F880C40420610608E05C020063E3017E65
:1039900079C219108CFBC00017F1031021061041E9
:1039A000181701C013FF3FF3013013013FF0001758
:1039B000F10310210610C1181F018003013013FF0D
:1039C0003013013FF00011FC4031008406103041FB
:1039D000813C0480008882220F9822708B63F8C09B
:1039E0000013F89FC40420210308304702E01008A8
:1039F00080400600680630C0E00011FC40310084C1
:103A000006101041811C04C01021808606181CE09D
:103A1000924430C00017F10310210210410C130131
:103A2000E010381FE3013013031FE00013F880C4D7
:103A30000420610208604E02C010000FFC02003832
:103A40000670E0E00013F880C40420610608605EA0
:103A5000028100080FFE0200380670E0E00017F156
:103A6000031021061041181701C013FF3FF0013F5A
:103A7000F00100100013F880C40420610608605CA7
:103A8000020000FF84003FE1FF08007FE00013F820
:103A900080C40420210208605E024001FF831018E8
:103AA00080C40620FFE00013F880C40420610608EB
:103AB000E05C220101FFC0001F81820C103F8000EA
:103AC0003000CF73044C113044C313CC4F233188E2
:103AD000CC63210C0C3000C003000033DEC11304A2
:103AE0004C313C8CC623318C0C300003FF000C00A1
:103AF0003000C003000033DEC113044C313C8CC6DF
:103B000023330C04300007DF010C043010C04300E5
:103B10000033DCC113044C313C8CC623318C0C3097
:103B20000007C6011804E012C071800033DECF73B5
:103B3000044C1130C4F233118C8C3010C2030800D5
:103B400020008003FF000033DCC113044C313C8CA7
:103B5000C623318C0C3000063F183060C1B687B1E7
:103B6000800033DCC113044F313D8CCC63230C0443
:103B70004181067F983061B19C47DF000033DCC192
:103B800013044C313C8CC623318C0C300003FF08ED
:103B90000020008003FF000033DCC113044F213DEF
:103BA00088CC63030C0000FFC0030FFC20008003DF
:103BB000FF000033DCC113044C213D88CC63030CAF
:103BC0000001F7C0431F0C603180C7E3000033DC05
:103BD000C113044C313D8CCC63030C0001F7C0537E
:103BE0001F4C613184C7DF000033DCC113044C215A
:103BF0003D88CC63030C0001F4C0D31F7C41310429
:103C0000C7DF000033DCC113044C213D88CC6303C3
:103C10000C0001F180461F1840E102C7F18000331B
:103C2000DCC113044C213D88CC63030C0001F7C0B8
:103C3000501F7C41010407DF000033DCC113044C3A
:103C4000213D88CC63030C0001F7C05A1F6841A1D5
:103C50000687DF000033DCC113044C213D88CC63B0
:103C6000030C0041F100FF9F3841310447DF0000A1
:103C700033DCC113044C313C8CC623318C0C300036
:103C800003FF080C203080C3FF000033DCC11304A5
:103C90004C313C8CC423230C040080C2030FFC2055
:103CA0003080C3FF000033DCC113044C313D8CCCA9
:103CB00063230C00319186461F1864E192C7F1809E
:103CC0000033DCCF73044C313C8CF623318C0C3048
:103CD00000C03000C00780738703800033DEC1134B
:103CE000044C313C8CC623318C0C306101840618A5
:103CF00018E092CC71800033DCC113044C313C8C51
:103D0000C623330C04300001FE0C082030C081FCB7
:103D1000000033DCC113044C313C8CC623330C044B
:103D2000300003FF00C00780330707000033DCC109
:103D300013044C313D88CC63030C03300C03FF00AB
:103D4000C00780330303800033DCC113044C313CD3
:103D50008CC623318C0C300003FF000C5FF0E0C0F8
:103D600003000033DCC113044C313D88CC63030CE9
:103D70000000FFC20008003FE08003FF000033DCCA
:103D8000C113044C313C8CC623330C0430FFC3FFF9
:103D9000023008C02303FF000033DCC113044C23AE
:103DA0003D88CCC3010C0300FFC00003F018604045
:103DB00081FC00001806FFB665B22D916C8BE4DB28
:103DC00064DA26F33731B08D806C036000DFF6CC07
:103DD000B645B22FB36D13799B18D8000FFE003093
:103DE00001800C006000DFF6CCB645B22FB36D1336
:103DF000739B08D8000FBE043021810C086000DBE3
:103E0000FB632D88B622F99B644DA73608D8008342
:103E1000E2019806701B6078C000DFF6FFB665B25D
:103E20002D937D93799B98D806C436200100080015
:103E30007FE000DFF6CCB645B22FB36D13739B085D
:103E4000D800087E40C2061258FC6000DFF6CCB6EF
:103E500045B22FB36F13731B08010208FE40C2194D
:103E6000128CFFC000DFF6CCB645B22FB36D1371D4
:103E70009B18D8000FFE6003001800FFE000DFF67B
:103E8000CCB645B26FB26F33631B0000FFC0063F74
:103E9000F10008007FE0001FF6CCB645B22FA26FFC
:103EA00033631B0001F7C0867C3201900CFC60007C
:103EB0001FF6CCB645B22FA26F33631B0003F7C1C8
:103EC000A60D37E9B04DFBE0001FF6CCB645B22F8A
:103ED000A26F33631B0003ECC1660BF7D9B0CDFFB3
:103EE000E0001FF6CCB645B22FA26F33631B000172
:103EF000F101887CC3E61068FE20001FF6CCB645B1
:103F0000B22FA26F33631B0001F7C1A00D03EF9026
:103F100040FBE0001FF6CCB645B22FA26F33631B07
:103F20000001F7C1947CA2051028FFE0001FF6CC29
:103F3000B645B22FA26F33631B0003E2017EF88601
:103F40001B3089FBC000DFF6CCB645B22FB36D1332
:103F5000719B18D80007FE203101880C7FE0001FFC
:103F6000F6CCB645B22FB36F13719B080080C40620
:103F70003FF101880C7FE0001BFB632D88B622F91E
:103F80009B6C4DA63608D88882220F8822708B63DE
:103F9000F8C0001FF6CCB645B22F936D13799B186D
:103FA000D808C04003002C0630E06000DBFB632D26
:103FB00088B622F99B644DA33618D80000860218F3
:103FC0001460DA6638C0001FF6FFB665B22F936D35
:103FD00013799B18D80003FC2031018C0C3F800022
:103FE000DFF6CCB645B22FB36D13719B18D8000F16
:103FF000FE0200280630E0E0001FF6CCB645B22FE6
:10400000B36F13719B09180807FE0300380330E0F3
:10401000E0001FF4FFA645322FB34D127993189894
:10402000000FFE00307F9F0C0060001FF6CCB645ED
:10403000B22FA26F33631B0001FFCC007FF3FF9808
:1040400000FFE0001FF6FFB645B22FB36D13799B5A
:1040500018D8000FFE08C0460230FFE000DFF6CCA3
:10406000B645B26FB26F33611B0100080FFE0780C7
:10407000C30C083F80003000CF73044C113C44C394
:10408000130C4C233188FC63210C0C3000C003005E
:104090000033DEC113C44F31308CC623F18C0C3099
:1040A0000003FF000C003000C003000033DCC1132C
:1040B000C44F31308CC623F18C0C300007DF010C6B
:1040C000043010C043000033DCC113C44F31308CC6
:1040D000C623F18C0C300007C40118046012C079AB
:1040E000800033DCCF73044F313084C633318F8C82
:1040F0003010C203080020008003FF000033DCC141
:1041000013C44F31308CC423F18C0C3000043F10A9
:104110003040C17687B1800033DCC113C44C3131EB
:104120008CFC63230C04C103047F903041311C4795
:104130009E000033DCC113C44F31308CC623F18C98
:104140000C300003FF080020008003FF000033DC78
:10415000C113C44C213188FC63030C0000FFC00371
:104160000FFC20008003FF000033DEC113C44C218C
:10417000318CFC63030C0001F7C0431F0C603180DD
:10418000C7E3000033DEC113C44C21318CFC630350
:104190000C0001F7C0D31F4C413104C7DF000033CE
:1041A000DEC113C44C21318CFC63030C0001F4C04C
:1041B000D31F7C413104C7DF000033DEC113C44C80
:1041C00021318CFC63030C0001F180461F187C61D7
:1041D00082C7F9800033DEC113C44C21318CFC63EB
:1041E000030C0001F7C0501F4041F10407DF00003D
:1041F00033DEC113C44C21318CFC63030C0001F786
:10420000C04A0F2840A10287DF000033DEC113C47B
:104210004C21318CFC63030C0041F100FF1F304145
:10422000310447DE000033DCC113C44F31308CC68B
:1042300023F18C0C300003FF080C203080C3FF00FA
:104240000033DCC113C44F31318CFC63E30C00300C
:1042500080C2030FFC203080C3FF000033DCC11399
:10426000C44F31318CFC63E30C00319986661F9892
:1042700066619AC7F9800033DCCF73044F31308C0C
:10428000C623F18C0C3000C03000C0078073870358
:10429000800033DCC113C44F31308CC623F18C0C49
:1042A00030610184061018E0D6CE71800033DCC185
:1042B00013C44F31308CC623F30C04300001FE0CC4
:1042C000082030C081FC000033DCC113C44F313002
:1042D0008CF623F30C04300003FF00C00780330783
:1042E00007000033DCC113C44C313188FC63030C7C
:1042F00003300C03FF00C00780330303800033DC6E
:10430000C113C44F31308CC623F18C0C300007FF31
:10431000000C0FF1F8C003000033DEC113C44C21C0
:10432000318CFC63030C0000FFC20008003FF080EA
:1043300003FF000033DCC113C44F31308CC623F1BE
:104340008C0C300003FF023008C02303FF00003351
:10435000DCC113C44C233188FCC3010C0300FFC033
:104360000003F018604081FC00001806FFB645B25B
:104370002F916C8B64DB64FA27F33731B08D806C3E
:104380000360001FF4FFBE45F229B34D13F99318E3
:1043900098000FFE003001800C0060001FF4FFBE8B
:1043A00045F229B34D13F9931898000FBE0C3061F4
:1043B000830C1860001BFA6FEF88BE22999A644F35
:1043C000B32618980083E2018806701B4079C0006C
:1043D0001FF4FBA645F229934D12789F989844CC80
:1043E000266003001800FFE0001FF4FFBE45F2291D
:1043F000B34D13F993189800087E40C2061378FE57
:1044000060001FF4CCBE453269B27D13F193189859
:104410000208FE40021F1288F7C0001FF4FFBE45CD
:10442000F229B34D13F9931898000FFE600300189A
:1044300000FFE0001FF6C8BE45B22DA27F33631B0C
:104440000001FFC0067FF3001800FFE0001FF4C862
:10445000BE453229A27F3263130001F7C0867C3249
:1044600001900CFC60001FF6C8BE45B22DA27F3340
:10447000631B0003F7C1A60D37E9B04DFBE0001F39
:10448000F6C8BE45B22DA27F33631B0003ECC166A4
:104490000BF7D9B0CDFFE0001FF6C8BE45B22DA284
:1044A0007F33631B0001F101887CC3E61068FE6066
:1044B000001FF6C8BE45B22DA27F33631B0001F773
:1044C000C1A00D03EF9040FBE0001FF6C8BE45B24F
:1044D0002DA27F33631B0001FFC1B47DA20D1068C4
:1044E000FFE0001FF6C8BE45B22DA27F33631B005C
:1044F00003E2017EF8861B3089FBC0001FF4FFBE7B
:1045000045F229B34D13F99318980007FE203101A5
:10451000880C7FE0001FF6C8BE45B22DB36F13F3C1
:104520001B081880C4063FF101880C7FE0001BFBCC
:10453000622F88B622D99B6C4FA636081888822233
:104540000F8822708B63F8C0001FF6CCB645F22DA1
:10455000936D13F99B18D808C04003002C0630E077
:1045600060001BFA6FEF88BE22999A644FB3261839
:104570009801808602181C60DA4639C0001FF6FFD9
:10458000B665F22D936D13F99B18D80003FC20310A
:10459000018C0C3F8000DFF6CCBE45F22DB36D13CD
:1045A000F19B18D8000FFE0200280630E0E0001F43
:1045B000F6CCBE45B22DB37F13719B09180807FED8
:1045C0000300380330E0E0001FF4FFBE45F229B3DA
:1045D0004D13F9931898000FFE00307F9F0C006078
:1045E000001FF4C8BE453229A27F3263130001FFC9
:1045F000CC007FF3FF9800FFE0001FF4FFBE45F200
:1046000029B34D13F9931898000FFE08C0460230E5
:10461000FFE000DFF6CCBE45B26DB27F33611B0117
:1046200000080FFE0780C30C083F80001001F7113F
:104630001111111131F331231621C618410C10014B
:104640000010001F7111111131F231621C610C1048
:10465000003FF0010010010010001F711111113115
:10466000F231621C410C10003FF06106106106102F
:104670000017B8844422233F11891858820C100374
:104680001F1808C046027816600017B8BDC4222162
:104690001118F88C48C28C10208C0460030018009C
:1046A000FFE00017B8844422233F11891858820C78
:1046B000100018FEC0860E3651FC600017B8844406
:1046C00062233F310B18518204100218FEC0061FEE
:1046D0003289F7C0001F7111111133F231461C41AC
:1046E0000C10003FF3003003003FF00017B8844483
:1046F00022221F310B1841820001FF80047FE3005A
:104700001800FFE0001F7111131123F621C610C11C
:104710000007FF0613E12012013F10001F71111363
:104720001123F621C610C10007DF0517D16116114C
:104730007FF0001F7111131123F621C610C100076D
:10474000D10517DF7D16117FF00017B8844462226F
:104750003F310B1841820003F30198FCC7E6306932
:10476000FE60001F7111131123F621C610C100074E
:10477000DF0587D861F6187FF00017B884446222FD
:104780003F310B1841820003EFC124F9260930495B
:10479000FFE00017B8844463E23F310B1841820008
:1047A00043E2017EF887DB3089FFC0001F711111E1
:1047B0001131F231621C410C13FF3FF30130130140
:1047C0003FF0001F7111111131F2314218C1040381
:1047D000013013FF3013013FF00017B88444222347
:1047E0003F11891851820413331998FCC666336946
:1047F000FE200017B8BDC422211111F98858C20C3F
:10480000100880440600680630C0E00013DC411147
:10481000044431F08C4621330404102180860618AC
:104820001CE0D24430C0001F7111111131F231620D
:104830001C410C10001FE3013013030FE00017B8F8
:10484000844422231F11898858820C10000FFC0217
:1048500000280670E0E00017B8844422231F318B43
:104860001851820110080FFE0200380770E0E000C6
:104870001F7111111133F231461C410C10003FF031
:104880000147F3E100100017B8844462223F310B66
:104890001841820001FF88004003FF1000FFE00084
:1048A0001F7111111133F231461C410C10003FF001
:1048B000C40C40C43FF00017B8844462223F310B5F
:1048C0001841820101FFCFFE0F818208183F80004E
:1048D0001802FF9644B225912C9F648B645A22F3F0
:1048E0001730B085802C0160001FF2CC9644B27D59
:1048F000B22D11798B1858000FFE003001800C008A
:1049000060001F72FB9644B27DB22D11798B18584E
:10491000000FBE043021810C0860001BB96EE588D1
:104920009627D9916445B31618580083E20198067A
:10493000701B4078C0001FF2FF9644B22593ED91A2
:10494000798B985802C41620010008007FE0001FF0
:1049500072FB9644B27DB22D11798B185800087EF7
:1049600040C2061378FE60001F72C89644B27DB242
:104970002D11710B18000208FE40021F1288F7C0AB
:10498000001F72FB9644B27DB22D11798B1858002E
:104990000FFE6003001800FFE0001FF2C89644B24B
:1049A0007DA22F31630B0001FFC0067FF3001800CA
:1049B000FFE0001FF2C89644B27DA22F31630B00C6
:1049C00001F7C0867C3201900CFC60001FF2C89693
:1049D00044B27DA22F31630B0003F7C1A60D37E966
:1049E000B04DFBE0001FF2C89644B27DA22F3163A8
:1049F0000B0003ECC1660BF7D9B0CDFFE0001FF24E
:104A0000C89644B27DA22F31630B0001F101887C6E
:104A1000C3E61068FE60001FF2C89644B27DA22F64
:104A200031630B0001F7C1A00D03EF9040FBE000E4
:104A30001FF2C89644B27DA22F31630B0001FFC163
:104A4000947CA2051028FFE0001FF2C89644B27DB6
:104A5000A22F31630B0063E3017E7883CB1088FBC8
:104A6000C0001FF2CC9644B27DB22D11710B1858C4
:104A70000007FE203101880C7FE0001FF2C8964439
:104A8000B27DB22F11730B081880C4063FF1018864
:104A90000C7FE0001BF96225889627D9916C45A60A
:104AA0001608188882220F8822708B63F8C0001FB6
:104AB000F2CC9644B27D932D11798B185808C040E2
:104AC00007002C0630E060001BB96EE5889627D9F8
:104AD000916445B316185821808602181C60DA4686
:104AE00038C0001FF2CC9644B27D932D11798B18FB
:104AF000580007F8602301980C7F80001FF2CC96C5
:104B000044B27DB22D11710B1858000FFE0600281B
:104B10000630E0E0001FF2CC9644B27DB22D317336
:104B20000B08180807FE0300380730E0E0001F728A
:104B3000FB9644B27DB22D11798B1858000FFE0000
:104B4000307F9F0C0060001FF2C89644B27DA22FF8
:104B500031630B0001FFCC007FF3FF9800FFE00002
:104B60001F72FB9644B27DB22D11798B1858000F3D
:104B7000FE0880440220FFE0001FF2CC9644B27D84
:104B8000B22F31730B0100080FFE0781C70C083FDD
:104B900080001001F7111111F11131123123F621AA
:104BA000C618C10810010010001F7111111F331227
:104BB0003162FC610C10003FF00100100100100098
:104BC0001F7111111F33123162FC610C10007DF056
:104BD0004104104104100017B8844423E3311189C3
:104BE0008BD8C20C10031F1808C04602781660004C
:104BF00017B8BDC423E11119888848DE8C10208CB9
:104C0000046003001800FFE00017B8844423E33178
:104C100011898BD8C20C100018FEC0860E3651FCCC
:104C2000600017B8844463E331310B1BD182040068
:104C30000218FEC0061F3289F7C00017B88444234B
:104C4000E33111898BD8C20C10000FFC60030018EF
:104C500000FFE00017B8847C222231317B184182AA
:104C60000001FF80047FE3001800FFE0001F7111C6
:104C7000F31123162FC610C10007FF0613E12012FF
:104C8000013F10001F7111F31123162FC610C10030
:104C900007DF0517D16116117FF0001F7111F311A5
:104CA00023162FC610C10007D10517DF6116117F2B
:104CB000F00017B8847C622231317B1841820003F6
:104CC000F30198FCC7E63069FE60001F7111F31113
:104CD00023162FC610C10007DF0587D861F6187F9D
:104CE000F00017F8847C622231317B184182000386
:104CF000EFC124F926093049FFE00017B8847C622F
:104D00002231317B1841820043E2017EF887DB309B
:104D100089FFC0001F7111111F33123162FC610C39
:104D200010003FF3013013013FF0001F7111111FFC
:104D3000331621C6F8C10013013013FF3013013FB1
:104D4000F00017B8844423E331310B1BD1820013E8
:104D5000331998FCC6663369FE600017B8BDC423DA
:104D6000E11111898BD8DE0C10088044060068061A
:104D700030C0E00013DC4111047C31108C462F332D
:104D800004041021808606181CE0D24430C0001FA5
:104D90007111111F31123162FC410C10001FE3012F
:104DA0003013030FE00017B8844423E31111898BFB
:104DB000D8820C10000FFC0200280670E0E00017FB
:104DC000B8844463E231310B1BD1820010180FFC10
:104DD0000600380661E1E801001F7111111F33124E
:104DE0003162FC610C10003FF00147F3E10010005C
:104DF00017B8844423E33111091BD1820801FF8CC9
:104E0000006003FF1800FFE0001F7111111F331233
:104E10003162FC610C10003FF0C40C40C43FF00054
:104E200017B8847C63E231317B1841820101FFCFE6
:104E3000FE0F818208183F80001802FF9644B23DA1
:104E4000912C99648B67DA22F31730B085802C019E
:104E500060005F72FB9647B265B22D1F798B1858C0
:104E6000000FFE003001800C0060005F72FB96476F
:104E7000B265B22D1F798B1858000FBE0430218106
:104E80000C0860005BB96EE588F6265991647DB325
:104E90001618580083E2018806701B4079C0005F35
:104EA000F2FB9647B225932D17798B985842CC1672
:104EB0006003001800FFE0005F72FB9647B265B226
:104EC0002D17798B185800087E40C2061378FE60B3
:104ED000005F72C89647B265B22D17710B18580261
:104EE00008FE40021F1288F7C0005F72FB9647B2AF
:104EF00065B22D17798B1858000FFE60030018005B
:104F0000FFE0005FF2C89647B265A2EF31630B0085
:104F100001FFC0067FF3001800FFE0005FF2C896B3
:104F200047B265A2EF31630B0001F7C0867C320106
:104F3000900CFC60005FF2C89647B265A2EF316347
:104F40000B0003F7C1A60D37E9B04DFBE0005FF29F
:104F5000C89647B265A2EF31630B0003ECC1660B44
:104F6000F7D9B0CDFFE0005FF2C89647B265A2EF77
:104F700031630B0001F101887CC3E61068FE60001C
:104F80005FF2C89647B265A2EF31630B0001F7C12B
:104F9000A00D03EF9040FBE0005FF2C89647B265BA
:104FA000A2EF31630B0001FFC1943CA2051028FF62
:104FB000E0005FF2C89647B265A2EF31630B0003D1
:104FC000E3017E7883CB1088FBC0001FF2CC9647AC
:104FD000B265B22D17710B18580007FE20310188F9
:104FE0000C7FE0001FF2CC9647B265B22D17710B13
:104FF000185880C4063FF101880C7FE0005BF9621D
:105000002588F62659916C5DA61608188882220F0D
:105010008822708B63F8C0001FF2CC9647B265936C
:105020002D17798B185808C04007002C0630E06017
:10503000005BB96EE588F6265991645DB316185881
:1050400000008602181C60DA4639C0001FF2CC96B8
:1050500047B265922D17798B18580007F860230125
:10506000980C7F80001FF2CC9647B265B22D1F715D
:105070000B1858000FFE0600280630E0E0001FF273
:10508000CC9647B265B2ED31730B08180807FE03E2
:1050900000380730E0E0005F72FB9647B265B22D42
:1050A00017798B1858000FFE00307F9F0C006000AE
:1050B0005FF2C89647B265A2EF31630B0001FFCCE7
:1050C000007FF3FF9800FFE0005F72FB9647B26538
:1050D000B22D17798B1858000FFE08C0460230FF1A
:1050E000E0001FF2CCF644B265B2EF31730B010061
:1050F000080FFE0781C70C083F807DF06082041016
:10510000608305986CC1620300183FFE7DF06082E9
:10511000041660B30183FFFFFF0003FF800C0060F3
:105120000300187DF06082041660B30183FFE00085
:105130000003EF810C08604302187DF060820416C2
:1051400060B30183FFE0000003E2011009C05B03CC
:105150008C7DF06082041060B305800C1FFF00019D
:105160000008004002001FF87DF06082041660B362
:105170000183FFE00000031F9830C186DE3D9C7D67
:10518000F060820C1660B30183FFE00000431FD87B
:1051900030C266513EF07DF06082041660B3018338
:1051A000FFE0000001FF88004002001FF87DF06072
:1051B000820C1660307FFC0000003FF0018FFC4045
:1051C00002001FF87DF060820C1660307FFFFFE068
:1051D000007DF0208104F826013F087DF060820CFC
:1051E0001660307FFFFFE0007DF0289F44C226114B
:1051F0003FF87DF060820C1660307FFFFFE0007D9D
:1052000010289F7CC226113FF87DF060820C16604A
:10521000307FFFFFE0007C40221F18C1C60B3F8C8F
:105220007DF060820C1660307FFFFFE0007DF0288B
:105230001F7CC206103FF87DF060820C1660307F44
:10524000FFFFE0007DF0251F28C1460A3EF87DF0F3
:1052500060820C1660307FFFFFE0087C403FDF1863
:10526000C366113FF87DF060820C1660B30183FFC6
:10527000E0000001FF880C4062031FF87DF06082AF
:105280000C1660B30183FFE0002031018FFC406207
:10529000031FF87DF060820C1660B30183FFE0000D
:1052A0006443221F18C9C64B3F8C7DF060820416F0
:1052B00060B30183FFE00002001000C00A018C38D7
:1052C000387DF060820C1660B30183FFE0000000BF
:1052D000C2061031C25B638C7DF060820C1660B335
:1052E0000183FFE0000000FF080CC062030FE07DB7
:1052F000F060820C1660B30183FFE0000003FF80C2
:10530000C00A01CC38387DF060820C1660B301838E
:10531000FFE0400201FF80800E01CC38387DF06054
:10532000820C1660B30183FFE0000003FF800C0FC6
:10533000E7C300187DF060820C1660307FFFFFE04D
:10534000003FF10008007FC2001FF87DF060820C72
:105350001660B30183FFE0000003FF823011808CF0
:105360003FF87DF060820C1660307FFC0000407FCB
:10537000F3FF83E060C3020FE0003000CFF30C4C7A
:10538000313084C2930A4F283020C08B3FEC00306C
:1053900000C003000033FCC3130C4C213CA4F08379
:1053A000026CFF3000C7FF000C003000C00300009B
:1053B00033FCC3130C4C213CA4C08303ECFC300031
:1053C00007DF010C043010C043000033FCC3130C92
:1053D0004C213CA4C08303ECFC300007C40118043A
:1053E0006012C071800033FCC3130C4C2130A4F256
:1053F00093020CFFB000C003080C20008003FF00E4
:105400000033FCC3130C4C213CA4C0830FECFC30D4
:1054100000063F183060C1B787B3800033FCC31368
:105420000C4C293CA4C0833FEC003003063F98009D
:1054300061E19C47DF000033FCC3130C4C213CA40A
:10544000C0831FECF8300003FF080020008003FF3A
:10545000000033FCC3130C4C293CA4C08B3FCC0090
:1054600000FFC0030FFC3FF08003FF000033FCC3CC
:10547000130C4C293CA4C08B3FCC0001F7C0430166
:105480000C7C3100C7E3000033FCC3130C4C293CF7
:10549000A4C08B3FCC0001F7C0D3034C7D3104C7BF
:1054A000DF000033FCC3130C4C293CA4C08B3FCC61
:1054B0000001F4C0D3037C7D3104C7DF000033FC5E
:1054C000C3130C4C293CA4C08B3FEC0031F1804647
:1054D00001187C6182C7F9800033FCC3130C4C298E
:1054E0003CA4C08B3FCC0001F7C0D003407DF10449
:1054F00007DF000033FCC3130C4C293CA4C08B3FD6
:10550000CC0001F7C0CA03287CA10287DF0000336A
:10551000FCC3130C4C293CA4C08B3FCC0001F10010
:10552000FF83007DF10447DF000033FCC3130C4C04
:10553000213CA4C0831FECF8300003FF080C20308E
:1055400080C3FF000033FCC3130C4C293CA4C08370
:105550003FEC00300002030FFC203080C3FF00004E
:1055600033FCC3130C4C293CA4C0833FEC00300037
:1055700004461F18446112C7D9800033FCC3130CC2
:105580004C213CA4C083026CFF3000C03300C00734
:1055900080330703800033FCC3130C4C213CA4C0B0
:1055A0008302ECFE30000184061018A096CC7180B6
:1055B0000033FCC3130C4C213CA4C08303ECFC302F
:1055C00000C1FC0C082030C081FC000033FCC31378
:1055D0000C4C293CA4C0833FEC80300003FF0080CA
:1055E0000700370707000033DCC3130C4C293CA429
:1055F000C0873FEC00300803FF00C00700370707F3
:10560000000033FCC3130C4C213CA4F08303ECFCDE
:10561000300007FF000C00F1FCC003000033FCC3A6
:10562000130C4C293CA4C08B3FCC0000FFC20008E7
:10563000003FE08003FF000033FCC3130C4C213C0F
:10564000A4C0831FECF8300003FF021008402103C0
:10565000FF000033FCC3130C4C293CA4C08B3FCC8F
:1056600000300807FF00001FE04081FE0000180620
:10567000FBB645B22D916C8BEF5F18D8C6C7F7F912
:10568000B00D806C0360001F76C8B645B22FBD6CAC
:105690006363FBFCD800CFFE003001800C0060008B
:1056A0001F76C8B645B22FBD6C6363FBFCD800CF34
:1056B000BE043021810C0860001BBB622D88B6221D
:1056C000F9EB618D87F6FCD80063E2019806601B58
:1056D0004078C0001F76C8B645B22DBD7CEB631B79
:1056E000FFD806C8364032001000FFE0001F76C821
:1056F000B645B22FBD6C6363FBFCD800087E4082C8
:10570000061258EE6000DF76C8B645B3AFBD6C63D5
:105710007FFB00180208FE40020F1188F7C0001F2F
:1057200076C8B645B22FBD6C6363FBFCD8000FFE94
:105730004002001000FFE000DF76C8B645B3AFBD01
:105740006C637FFB0019FFC0060033FF9800FFE089
:1057500000DF76C8B645B3AFBD6C637FFB0019F7B9
:10576000C0860433E1900CFC6000DF76C8B645B318
:10577000AFBD6C637FFB001BFFC1E60F33F990CC1C
:10578000FFE000DF76C8B645B3AFBD6C637FFB00BA
:105790001BF4C1A60DF3E9904CFBE000DBBB622DCE
:1057A00088B63AF9EB618DBFF60019F08042011816
:1057B0003C608343F8C000DF76C8B645B3AFBD6C2C
:1057C000637FFB001BFFC1E00F03FF10C0FFE00081
:1057D000DF76C8B645B3AFBD6C637FFB001BFFC16E
:1057E000A40D23E91048FFE000DF76C8B645B3AF4B
:1057F000BD6C637FFB001BE3017E0803CF10CCFB75
:10580000C0001F76C8B645B22FBD6C6363FBFCD8E1
:10581000000FFE603301980CFFE0001F76C8B6450C
:10582000B3AFBD6C637FFBC0D8000C067FF301985B
:105830000CFFE0001BBB622D88B63AF9EB618DBF0F
:10584000F6C0D80002220F8822708B63F8C0001FB8
:1058500076C8B645B22FBD7C63633BFED800C04618
:105860000200280670E0E0001BBB622D88B622F91A
:10587000EB618D87F6FCD800608602181C60D34669
:1058800039C0001F76C8B645B22FBD6C6363FBFC00
:10589000D800C3F820230188083F80001F76C8B6CF
:1058A00045B22FBD6C637FFBF0D8000FFE020038BD
:1058B0000770E0E0001F76C8B645B3AFBD6C637FEC
:1058C000FB00D8080FFE7FF0380370E0E0001F7681
:1058D000C8B645B3AFBD6C637FFBF0D8000FFE00C8
:1058E00030019FFC006000DF76C8B645B3AFBD6CE9
:1058F000637FFB0019FFCC006003FF1800FFE0008E
:105900001F76C8B645B22FBD6C6363FBFCD8000F91
:10591000FE18C0C60630FFE000DF76C8B645B3AF5C
:10592000BD6C637FFB0018080FFE0000FF0C083FF2
:1059300080001001F791093093093D92D92C10C1D4
:105940000C5FFD0010010010001F791091093093C9
:10595000D90C10FDFE10003FF001001001001000F6
:105960001F791091093093D90C1FFDE010003FF012
:105970006106106106100013DE410904243090F620
:1059800040C13FF4E0100007C60118046013C0597D
:10599000C00017BCBDE42121091E48B64182FFD0DA
:1059A0000080046003001800FFE00017BC8424217D
:1059B00023091EC8305FFAE0100018FCC0860C36C0
:1059C000D1EC600017BC84242123C916C8305FFACB
:1059D00000100218FEC0061F3289F7C0001F7910A0
:1059E00091093093D90C1FFDE010003FF300300304
:1059F000003FF00017BC84242123C916C8315FF290
:105A00000001FF80040023FF1000FFE0001F791059
:105A100091093C92D90C5FF90013FF0610613E1208
:105A2000013F10001F791091093C92D90C5FF900D9
:105A300007DF0590597D96197FF0001F79109109B5
:105A40003C92D90C5FF90007D905905F7D96197FCC
:105A5000F00013DE410904243C90B640C53FE40049
:105A600001F1804601187C618347F9C00017BC84AE
:105A7000242123C916C8315FF20003EF81600B07B0
:105A8000DF30C1FFE00017BC84242123C916C831D0
:105A90005FF20003EF812C0967CB3059FFE000175C
:105AA000BC84242123C916C8315FF20003E2017EC1
:105AB0000807DF3089FFC0001F791091093093D9A2
:105AC0000C10FDFC10003FF3013013013FF0001FEC
:105AD000791091093C93D90C1FFD8013013013FFFD
